:100000000C9434000C9449000C9449000C94490061
:100010000C9449000C9449000C9449000C9449003C
:100020000C9449000C9449000C9449000C9449002C
:100030000C9449000C9449000C9449000C9449001C
:100040000C9449000C9449000C9449000C9449000C
:100050000C9449000C9449000C9449000C944900FC
:100060000C9449000C94490011241FBECFEFD8E036
:10007000DEBFCDBF11E0A0E0B1E0E0E4F1E002C0FE
:1000800005900D92A630B107D9F70E9483000C9419
:100090009E000C94000021E030E001C0220F8A9500
:1000A000EAF728B980E0861759F02FEF33ED90E397
:1000B000215030409040E1F700C000008F5FF3CF47
:1000C00018B808959CE38CE32FEF33ED40E3215003
:1000D00030404040E1F700C000008150A9F7915046
:1000E00091F7089510927A0083B7817F8C6083BF67
:1000F000F89483B7816083BF85B7806685BF8F7DA5
:1001000085BF889508958FEF87B963E085E00E94E9
:100110004B0063E084E00E944B0063E083E00E94B8
:100120004B008EE12FEF33ED90E3215030409040B3
:10013000E1F700C000008150A9F7E7CFF894FFCFA6
:06014000030405220A0081
:00000001FF
